:020000040000FA
:02000000412895
:0800080022280808BD000310C6
:10001000BD0D0310BD0D0310BD0D0310BD0D3D083A
:10002000870008000808BD000310BD0D0310BD0DBA
:100030003D08870008000808BD000310BD0D3D08FD
:10004000870008000B182E280B1936288B18292832
:100050000900FF30BB008B10080809000B10860850
:100060000B100301061C0130A00009000B11091838
:100070003D28091421088100090009102108810088
:10008000090083160313B13081009609B8308B0044
:10009000870188018901831603178801890183126A
:1000A0000313FF3086008901A0019030A40048307E
:1000B000A5002430A6004530A7005530A800A901AE
:1000C000AA012030AB00AC01AD010230AE00AF019F
:1000D0003030B000B101B2010230B300B401B5015B
:1000E000BB01BC0187018801BC0AFF303B02031D34
:1000F0007328BC180C293C18F628E3286430A200A9
:100100000000A20B802808000730B6002F30B7008F
:100110000330B800B60B8D28B70B8F28B80B8A2890
:1001200091289228932808004E30B900C430BA00B4
:10013000B90B9B28BA0B98289D28000008000910CD
:100140008316031381169630A3007E20A30BA528E7
:1001500081128312031311308100A10008002C309A
:100160008100A100080042308100A10008004D304C
:100170008100A100080060308100A10008007230F9
:100180008100A100080082308100A10008008830B1
:100190008100A100080096308100A1000800A13074
:1001A0008100A1000800A6308100A1000800B03045
:1001B0008100A1000800B9308100A1000800C03012
:1001C0008100A10008008316031381128312031318
:1001D0000520AB208420AF208420B3208420831608
:1001E0000313811683120313BB01732883160313B1
:1001F0008112831203131220AB2094209420BB2081
:100200008420AB208420842083160313811683125C
:1002100003138420BB0173288316031381128312F6
:1002200003131B20C32094209420C3208420BF20CC
:1002300084208420831603138116831203138420E1
:04024000BB01732863
:02400E00F43F7D
:00000001FF
