:020000040000FA
:020000000528D1
:08000800582883160317880134
:10001000890183160313FF308700880183160313B9
:100020008501061483160313890183160313073011
:100030008100B0308B00A001831203138701880177
:100040008501880A0914A301A401A601A501A7013D
:10005000A80183120313D930810000002D288207E4
:100060003F3406345B344F3466346D347D340734AA
:100070007F34673477347C3439345E347934713486
:100080000708A1000310A10D0310A10D0310A10D7D
:10009000210808000708A1000310A10D0310A10DFD
:1000A000210808000708A1000310A10D210808007D
:1000B0000B1D74282808031D672824082F20A5007D
:1000C00025080514851488000510A809702826083D
:1000D0002F20A70027080514851488008510A8097B
:1000E0000B11D830810082280708A40A0A302402A4
:1000F000031D8128A401A60A0A302602031D8128B7
:06010000A6018B100900AE
:02400E00F13F80
:00000001FF
