:020000040000FA
:020000006C286A
:080008005228B301B3000F30D0
:1000100033020319E6290E3033020319D1290D30BA
:1000200033020319BC290C3033020319A7290B3002
:100030003302031997290A30330203198229093040
:10004000330203196D290830330203195D29073083
:1000500033020319482906303302031933290530C6
:10006000330203191E29043033020319092903300E
:1000700033020319F928023033020319E42801304E
:1000800033020319C528B3080319B52808008207ED
:100090003F3406345B344F3466346D347D3407347A
:1000A0007F3467342B08031D5F2821084720A200F6
:1000B00022080914891486000910AB09682823084E
:1000C0004720A40024080914891486008910AB096C
:1000D0000B11D830810009008316031788018901AC
:1000E00083160313FF30880085018601870189018B
:1000F000831203138501860187018901A101A301F0
:10010000AB01B00183160313073081008312031380
:10011000D9308100A0011E30AC0080308B008501F9
:10012000870193208F28F030B000B1009C20310867
:1001300008080520982808000310B10C0310B10C22
:100140000310B10C0310B10C08000F30B205080009
:10015000A10A0A302102031D0800A101A30A0A30E6
:100160002302031D0800A301080003117D3087004E
:10017000383085001C2283308700443085001C22E3
:10018000AC0BB5281430AC0008000311FD3087001B
:10019000083085001C22FB308700183085001C22A7
:1001A000F7308700283085001C228F308700083008
:1001B00085001C227F3087003C3085001C22AC0B60
:1001C000C5281430AC00080003116D3087003C30A6
:1001D00085001C22F3308700043085001C229F30EC
:1001E0008700203085001C22AC0BE4281430AC00C2
:1001F000080003116D3087003C3085001C229330CD
:100200008700043085001C22AC0BF9281430AC00A8
:1002100008000311F1308700243085001C22EF30E4
:1002200087003C3085001C221F3087000430850089
:100230001C22AC0B09291430AC00080003116D30EE
:1002400087003C3085001C22F33087002030850079
:100250001C229F308700043085001C22AC0B1E2915
:100260001430AC00080003116D3087003C3085006D
:100270001C22F3308700203085001C229F3087002D
:10028000243085001C22AC0B33291430AC0008004C
:100290000311FD308700783085001C221330870061
:1002A000083085001C22EF3087001C3085001C229E
:1002B000AC0B48291430AC00080003116D308700E6
:1002C000383085001C2293308700443085001C2282
:1002D000AC0B5D291430AC00080003116D308700B1
:1002E0003C3085001C22F3308700243085001C221E
:1002F0001F308700043085001C22AC0B6D291430A0
:10030000AC0008000311FD308700383085001C2246
:1003100013308700443085001C22EF3087007C308A
:1003200085001C22AC0B82291430AC00080003119C
:100330006D308700783085001C2293308700643050
:1003400085001C22AC0B97291430AC000800031167
:100350007D3087001C3085001C22BB308700203098
:1003600085001C22C7308700403085001C22AC0B62
:10037000A7291430AC00080003117D3087007830C5
:1003800085001C22BB308700643085001C22C730EA
:100390008700623085001C22AC0BBC291430AC00F5
:1003A000080003117D3087007C3085001C228330DB
:1003B0008700603085001C22EF3087007C3085008C
:1003C0001C22AC0BD1291430AC0008000311FD3005
:1003D00087007C3085001C22033087006030850058
:1003E0001C22EF308700783085001C22AC0BE629F8
:1003F0001430AC0008000730A5002F30A6000330F1
:10040000A700A50B042AA60B062AA70B012A082A77
:10041000092A0A2A08004E30A800C430A900A80BF7
:10042000122AA90B0F2A142A000008006430AA001F
:100430000000AA0B182A08000130AD000830AE00F9
:10044000FA30AF0000000000AF0B222AAE0B202ACA
:06045000AD0B1E2A08009E
:02400E00F43F7D
:00000001FF
